:100000000C9491040C94D8040C94D8040C94D80447
:100010000C94D8040C94D8040C94D8040C94D804F0
:100020000C94D8040C94D8040C946A260C943E27A3
:100030000C94CF210C94D8040C94D8040C94D804BC
:100040000C94D8040C94D8040C94D8040C94D804C0
:100050000C94D8040C9441220C94D8040C94D80429
:100060000C94D8040C94D8040C94D8040C94D804A0
:100070000C94D8040C94D8040C94D8040C94D80490
:100080000C94D8040C94D8040C94D8040C94D80480
:100090000C94D8040C94D8040C94D8040C94D80470
:1000A0000C94D8040C94D8040C94D80480818283D6
:1000B0008485868788898A8B8C8D8E8F9091929388
:1000C00094A0A1A2A3A4A5A6A7A8A9AAABACADAED3
:1000D000AFB0B1B2B3B4C0C1C2C3C4C5C6C7C8C94A
:1000E000CACBCCCDCECFD0D1D2D3D40023002200E6
:1000F000210020001F001E0000047F3F1F643214F7
:10010000643214783C1E1E140A0522232526282951
:100110002A2C2D2F3032333536383A3B3D3E404283
:10012000434547494A4C4E5051535557595A5C5EC6
:100130006062646668696B6D6F71737577797B7DDA
:100140007F81838587898A8C8E90929496989A9CD9
:100150009E9FA1A3A5A7A8AAACAEAFB1B3B4B6B8F1
:10016000B9BBBCBEBFC1C2C3C5C6C7C9CACBCCCD53
:10017000CED0D1D2D2D3D4D5D6D7D7D8D9D9DADA2E
:10018000DBDBDBDCDCDCDCDCDDDDDDDDDCDCDCDCAE
:10019000DCDBDBDBDADAD9D9D8D7D7D6D5D4D3D2E2
:1001A000D2D1D0CECDCCCBCAC9C7C6C5C3C2C1BFC0
:1001B000BEBCBBB9B8B6B4B3B1AFAEACAAA8A7A524
:1001C000A3A19F9E9C9A98969492908E8C8A8987E0
:1001D0008583817F7D7B79777573716F6D6B6968BE
:1001E000666462605E5C5A5957555351504E4C4A92
:1001F0004947454342403E3D3B3A3836353332303D
:100200002F2D2C2A292826252322FFAA7F5540009E
:1002100001010101010101010102020202020202C7
:10022000020203030303030303030404040404049A
:100230000405050505050606060606070707070760
:1002400008080808090909090A0A0A0B0B0B0C0C13
:100250000C0D0D0D0E0E0E0F0F0F101011111112AF
:100260001213131414151516161717181819191A2E
:100270001A1B1B1C1D1D1E1E1F2020212222232491
:1002800024252626272829292A2B2C2D2D2E2F30D0
:10029000313232333435363738393A3B3C3D3E3FE4
:1002A000404142434445464748494A4C4D4E4F50D1
:1002B000515354555658595A5B5D5E5F616264658F
:1002C0006668696B6C6D6F7072737577787A7B7D19
:1002D0007E8082838587888A8C8E8F91939596986D
:1002E0009A9C9EA0A2A3A5A7A9ABADAFB1B3B5B789
:1002F000BABCBEC0C2C4C6C9CBCDCFD1D4D6D8DB60
:10030000DDDFE2E4E7E9EBEEF0F3F5F8FAFDFF00FC
:10031000AE00AF00DA02818FD9F1DB40A4A62EAF88
:1003200000A0C000A1C800AED580A81FD300408D9A
:100330001420000000000000003E5B4F5B3E003ECA
:100340006B4F6B3E001C3E7C3E1C00183C7E3C18F4
:10035000001C577D571C001C5E7F5E1C0000183C73
:10036000180000FFE7C3E7FF00001824180000FF93
:10037000E7DBE7FF0030483A060E002629792926F8
:1003800000407F05050700407F05253F005A3CE7F8
:100390003C5A007F3E1C1C0800081C1C3E7F0014B9
:1003A000227F2214005F5F005F5F0006097F017FEC
:1003B00000006689956A0060606060600094A2FF3A
:1003C000A2940008047E04080010207E201000087B
:1003D000082A1C0800081C2A0808001E101010100B
:1003E000000C1E0C1E0C0030383E383000060E3E4D
:1003F0000E060000000000000000005F000000008A
:100400000700070000147F147F1400242A7F2A129B
:100410000023130864620036495620500000080784
:10042000030000001C224100000041221C00002AA1
:100430001C7F1C2A0008083E08080000807030005D
:10044000000808080808000000606000002010088C
:100450000402003E5149453E0000427F40000072C8
:1004600049494946002141494D33001814127F1073
:10047000002745454539003C4A4949310041211191
:10048000090700364949493600464949291E0000F6
:100490000014000000004034000000000814224155
:1004A000001414141414000041221408000201590D
:1004B0000906003E415D594E007C1211127C007FFE
:1004C00049494936003E41414122007F4141413E78
:1004D000007F49494941007F09090901003E414126
:1004E0005173007F0808087F0000417F4100002011
:1004F00040413F01007F08142241007F40404040BE
:10050000007F021C027F007F0408107F003E4141F3
:10051000413E007F09090906003E4151215E007FEE
:10052000091929460026494949320003017F010380
:10053000003F4040403F001F2040201F003F403808
:10054000403F00631408146300030478040300614F
:1005500059494D4300007F414141000204081020E9
:1005600000004141417F000402010204004040407C
:100570004040000003070800002054547840007FEA
:100580002844443800384444442800384444287FF0
:100590000038545454180000087E09020018A4A41E
:1005A0009C78007F080404780000447D400000200F
:1005B00040403D00007F102844000000417F400083
:1005C000007C04780478007C0804047800384444F3
:1005D000443800FC182424180018242418FC007C3B
:1005E000080404080048545454240004043F4424DC
:1005F000003C4040207C001C2040201C003C40303F
:10060000403C004428102844004C9090907C0044CA
:1006100064544C440000083641000000007700009C
:10062000000041360800000201020402003C2623BB
:10063000263C00000000000000404040F0F8F8FFB9
:1006400038FFF8F83FF8F8FF38FFF8F8F04040407E
:1006500000000000000080C0C0C0800000C0C0805A
:1006600000000080C0C000C0C0000080C0C000000A
:10067000000000C0C0C0C0C000C0C000000000003A
:10068000000000000000000000000000000000006A
:10069000000000000000000000000000000000005A
:1006A000000000000000000000000000000000004A
:1006B0000000C0F0F8FC3E1E06010000007F414132
:1006C000417F007F4141417F000080C0E07E5B4F61
:1006D0005BFEC00000C000DCD7DEDEDED7DC00C081
:1006E000000000000000000000000000000000000A
:1006F000000000000000000000494949FFFFFFFF23
:10070000E0DFBFBF00BFBFDFE0FFFFFFFF49494998
:1007100000000000001F3F6060E0BF1F007F7F07F8
:100720001E381E077F7F007F7F0E1F3B7160000019
:100730000000007F7F0C0C0C007E7E007F7E030398
:10074000007F7E03037E7E03037F7E000F3E703CAE
:10075000063C703E0F00327B49493F7E007F7E039E
:1007600003001E3F69696F260000000000000000C2
:100770000000030F1F3F3C7870600000007F414184
:10078000417F007F4141417F00307B7F78302020D6
:1007900030787F3B0003000F7F0F0F0F7F0F0003A8
:1007A0000000000000000000000000000000000049
:1007B000000000000000000000010101070F0F7F92
:1007C0000F7F0F0F7E0F0F7F0F7F0F0F07010101AC
:1007D0000000000000000000000001010000000017
:1007E0000000000000000000000000000000000009
:1007F00000000000000000000000000000000000F9
:1008000000000000000000000000000000000000E8
:1008100000000000000000000000000000000000D8
:1008200000000000000000000000000000000000C8
:1008300000000000000000000000000000000000B8
:1008400000000000000000000000000000000000A8
:100850000000000000000000000000000000000098
:100860000000000000000000000000000000000088
:100870000000000403300000001C036200750073D8
:100880000069006E006500730073005F0063006123
:100890000072006400000010036B0061006B0075C3
:1008A000006E0070006300000004030904090222C6
:1008B00000010100A0FA0904000001030101000980
:1008C00021110100012240000705810308000A12DE
:1008D00001100100000008EDFE000001000102030C
:1008E0000105010906A101050719E029E715002501
:1008F00001950875018102950175088101050719A7
:100900000029FF150026FF009506750881000508DF
:10091000190129059505750191029501750391014C
:10092000C00011241FBECFEFDAE0DEBFCDBF04B69A
:1009300003FE27C08091380490913904A0913A04B5
:10094000B0913B048730904BA740B04BD1F410924C
:1009500038041092390410923A0410923B0414BEE9
:1009600084B7877F84BF0FB6F894A8958091600004
:10097000886180936000109260000FBEE0E0F8E3B1
:10098000099511E0A0E0B1E0E2ECF3E502C00590CA
:100990000D92A435B107D9F724E0A4E5B1E001C078
:1009A0001D92A833B207E1F70E94AB230C94A32950
:1009B0000C94000081E008950E945C0E81E00E948A
:1009C000260E4FEF6FEF80E00C94D70B089508953B
:1009D000089560E08CEA90E00C94311181E0089574
:1009E0000C94DA041F93CF93DF9300D000D00F92C2
:1009F000CDB7DEB749835A836B832091A6018981E5
:100A00009A8121111BC06623A9F00E94351F182F5F
:100A1000682F89819A810E94E41E69817A81812FE1
:100A20000F900F900F900F900F90DF91CF911F912B
:100A30000C94B5050E940F1F182FEFCF0E94351F91
:100A400069817A81EDCFFC0140815181628173819E
:100A500084810C94F2040E947920811102C00E94CA
:100A600016210C945C080C945E080C94E70481E059
:100A700008950C943705CF93C82F0E9435058C2F0D
:100A8000CF910C94390508950E94241A0E944305C1
:100A90002FEF84E39CE0215080409040E1F700C0BC
:100AA00000000C9465220F931F93CF93DF93EC010A
:100AB0000E9423058C01BE010E94F0048823A9F145
:100AC000BE01C8010E940913882379F1BE01C80143
:100AD0000E944A13882349F1BE01C8010E941C0FDD
:100AE000882319F18A81882341F001158CE51807C4
:100AF000D1F00E3D8CE51807F1F006311C4551F59B
:100B00000E94CA1F9A819923D9F08A7A91E009F448
:100B100090E090935401811111C089E20E94A51FB9
:100B20000E94162002C00E94440580E0DF91CF9110
:100B30001F910F9108950E941621F7CF85E3EECF04
:100B400080915401811104C089E20E94AC1FE8CF5A
:100B500085E3FBCFCE01DF91CF911F910F910C94D4
:100B6000EE0490E080E008950895E72FF0E093E030
:100B7000899FE00DF11D1124EE0FFF1FE60FF11DFF
:100B8000EE0FFF1FE451FF4F859194910895FC01F2
:100B9000EE0FFF1FE850FF4F859194910895CF937A
:100BA000DF930E94B5050E948207EC01811520E5C4
:100BB000920708F09AC0811530E4930708F010C13D
:100BC000803E910508F07AC0803C910508F0F8C09D
:100BD000883A910588F4853A910508F0E6C081309D
:100BE000910509F476C0009709F473C0049708F0E2
:100BF00070C0D0E0C0E06DC08F3B9105D0F7883A5F
:100C0000910509F43AC1893A910509F439C18A3A42
:100C1000910509F438C18B3A910509F437C18C3A32
:100C2000910509F436C18B3B910509F435C18C3B24
:100C3000910509F434C18D3A910509F433C1803B23
:100C4000910509F432C18E3A910509F431C18F3A08
:100C5000910509F430C1813B910509F42FC1823B14
:100C6000910509F42EC1833B910509F42DC1843B04
:100C7000910509F42CC1853B910509F42BC1863BF4
:100C8000910509F42AC1873B910509F429C1883BE4
:100C9000910509F428C1893B910509F427C18D3BD1
:100CA000910509F426C18E3B910509F425C18A3BC3
:100CB000910509F424C1C0E0D4E40BC08115904231
:100CC00060F4C11581E0D80720F4C83ED10508F0D2
:100CD00090CFCE01DF91CF910895C11590E3D90750
:100CE00008F074C0CE019F706DC0811525E5920794
:100CF00058F5811534E5930708F0A1C0811542E548
:100D0000940750F4C11581E5D80708F46CC0DC2FB6
:100D1000CC27C16FD06ADDCF982F969596959E010E
:100D200023703327C115D34508F07AC0C1E0D0E065
:100D300002C0CC0FDD1F2A95E2F720E2929FC0018E
:100D40001124C82BD92B6AC0C11589E5D807A8F48E
:100D5000C11598E5D90708F077C0C11526E5D20777
:100D600008F047CF8C2F0E941908C82FD0E0DC2F45
:100D7000CC27CC27DF71D062ACCFC1153AE5D307C1
:100D800008F467C0CE0190568115904208F031CF2B
:100D90008D2F8F710E94190890E0982F882788273F
:100DA0009F719C012C2BE901E6CF853A910509F44E
:100DB0005EC0863A910509F05DC0C2E8D0E489CFF3
:100DC000805C91090E94C705EC0183CFCE01992771
:100DD000D3FF03C0EC01D86C7CCFEC01D06C79CF91
:100DE000DF70D06A76CFCE01E4E096958795EA95DC
:100DF000E1F783702C2F26952695237090E2299F8A
:100E000090011124382B8C2F8370C1E0D0E002C0F8
:100E1000CC0FDD1F8A95E2F7C22BD32BDC6859CFAC
:100E2000C1E0D0E002C0CC0FDD1F2A95E2F730E22E
:100E3000939FC0011124C82BD92BDA684ACFD82F31
:100E4000CC27C46FD06A45CFDC2FCC27C06FD06AC7
:100E500040CF8C2F8F700E94190834E0D695C7952B
:100E60003A95E1F7CF709C2FEC01D06932CFC1E801
:100E7000D0E42FCFC3E8D0E42CCFC2EED4E429CF06
:100E8000C9EED4E426CFCAEED4E423CFC5EBD4E434
:100E900020CFC6EBD4E41DCFC3EBD4E41ACFC4EB10
:100EA000D4E417CFC7EBD4E414CFCCECD4E411CF07
:100EB000CDECD4E40ECFC3E8D5E40BCFCAE8D5E43B
:100EC00008CFC2E9D5E405CFC4E9D5E402CFC1E239
:100ED000D6E4FFCEC3E2D6E4FCCEC4E2D6E4F9CE3B
:100EE000C5E2D6E4F6CEC6E2D6E4F3CEC7E2D6E457
:100EF000F0CECFE6D4E4EDCEC0E7D4E4EACECAE249
:100F0000D6E4E7CE82389105B1F1B0F48133910592
:100F100009F475C048F48932910509F469C08A3230
:100F2000910509F473C008958533910509F459C0FA
:100F30008933910501F10895833E9105A9F138F4B3
:100F4000803E9105F9F0823E910549F10895863E73
:100F50009105A9F1873E9105C9F1843E910519F5E6
:100F600020912A0421FF1FC08091290484FD14C010
:100F700087EE90E00895209129042370A1F080EE7F
:100F800090E008952091290420FD47C030912A0463
:100F900030FF09C024FF44C090E080E004C02091ED
:100FA000290422FDF7CF08952091290422FD3BC09A
:100FB00030912A0430FDE3CF24FFF5CFEDCF20910F
:100FC000290423FFF0CF24FDE7CFD2CF20912904BD
:100FD00023FD2CC030912A0431FFEECF84EE90E047
:100FE00008952091290425FFDECF89E290E008953D
:100FF0002091290425FFD7CF85E390E00895209123
:10100000290426FFD0CF8AE290E008952091290498
:1010100026FFC9CF81E390E0089589E390E0089529
:1010200083EE90E0089582EE90E0089586EE90E0E1
:1010300008959091290492FF06C0282F2871283026
:10104000F9F4877F846093FF06C0282F2871283128
:10105000F1F4877E846120912A0420FF06C0382F96
:1010600038713830D9F4877F816021FF06C0282F7E
:1010700028712831D1F4877E816194FD877E08959F
:10108000282F24712430F9F68B7F8860DCCF282F3D
:101090002471243101F78B7E8861DDCF382F3171C7
:1010A000313019F78E7F8860E0CF282F21712131F0
:1010B00021F78E7E8861E1CF0C94DC040C94E60469
:1010C0000895E82FF0E0EB5AFE4F80810895CF930A
:1010D000DF93A4E2B1E047E251E0C1E0D0E08D91BE
:1010E000E82FE295EF70F0E061A18F709E0101C0E2
:1010F000220F8A95EAF7922F9095962391A382A1C9
:10110000822B82A34A175B0751F724982C9A2598C3
:101110002D9A109258011092550110925901109277
:10112000560110925A011092570183E00E94000963
:10113000DF91CF910C942B05DF92EF92FF920F93EA
:101140001F93CF93DF93A8E5B1E044E251E06BE554
:1011500071E010E0EE24E394F12C0C911D92FA0161
:101160008191AF01E82FE295EF70F0E091A18F70CF
:10117000970101C0220F8A95EAF7892F822B81A35C
:1011800082A1D22ED0948D2182A380EA8A95F1F794
:1011900083B1ED0190E034E0959587953A95E1F7BC
:1011A00080959095817099279A91892B88831D99B4
:1011B00025C092E0892B888381A18D2181A382A102
:1011C000282B22A381E09881901301C080E0182B86
:1011D0006A177B0711F6212F43E065E571E088E58A
:1011E00091E00E9401090E943305812FDF91CF9188
:1011F0001F910F91FF90EF90DF90089590E0DACF6C
:101200000895FF920F931F93CF93DF93F82E092F2A
:10121000162FD72FC42F222349F081E080935D0140
:101220000E94FF2190935C0180935B0180915D019E
:101230008823A1F080915B0190915C010E941722AC
:10124000069760F0EF2DF02FA12FBD2FCE0FDF2FCF
:10125000D11DEC17FD0741F410925D01DF91CF9194
:101260001F910F91FF90089581918D93F2CFAF92CE
:10127000BF92CF92DF92FF920F931F93CF93DF9392
:10128000362F472FE82FF0E0E15FFD4F71110DC0C1
:101290006491762F862FDF91CF911F910F91FF9050
:1012A000DF90CF90BF90AF900895C72FD0E02491EA
:1012B000F22E022F10E056E0659FC0011124EFEFDF
:1012C000F0E0BF010E940A29832F90E0880F991F48
:1012D00035E5369FD001379FB00D11248A1B9B0B3B
:1012E000982F990F980F6F01CC1ADD0AC09ED0017C
:1012F000C19EB00DD09EB00D11248B2F949FA001E4
:101300001124452F55276F01C41AD50AC09EA0018C
:10131000C19E500DD09E500D11245F01A91AB10835
:10132000AC9E6001AD9ED00CBC9ED00C1124CD2C87
:10133000DD24EC19FD09E09FE001E19FD00DF09F55
:10134000D00D1124ED2F62307105A1F048F4611524
:10135000710569F06130710589F0EB2F852F07C0A9
:101360006430710571F088F066307105B1F76E2F49
:10137000722F91CFE22F2B2F8D2FF9CFE22F252F18
:10138000F6CFEB2F822F2D2FF2CF2B2F8F2DE52F86
:10139000EECF0895CF93DF93762FE901682F842F46
:1013A0000E943709798368838A83DF91CF910895FA
:1013B00080910802982F9E7F29F48170826080932B
:1013C000080208958A34E8F381708864F8CF88E0D1
:1013D00090E00C946329CF92DF92EF92FF926B0121
:1013E0007C010E94D809B701A60188E090E0FF9037
:1013F000EF90DF90CF900C948129E8E0F2E083E059
:10140000808311828FEF8283838314826081718154
:10141000828193810C94EB098091080280FF02C0C5
:101420008695089580E0089580910C02833018F429
:101430008F5F80930C026091080270910902809185
:101440000A0290910B020C94EB0980910C02882304
:1014500019F0815080930C0260910802709109028A
:1014600080910A0290910B020C94EB0960910401A7
:1014700070E08091080280FF0AC08091620123E041
:10148000829FC0011124835F9D4F0C94BF0F8091F8
:1014900061019091030123E0829FF0011124E35F39
:1014A000FD4F891750F71182108212828F5F339699
:1014B000F8CF9091080290FF14C0909161012091A3
:1014C000030133E0939FF0011124E35FFD4F921776
:1014D00010F00C94360A8183608342839F5F3396B9
:1014E000F6CF0895CF93DF9300D00F92CDB7DEB73C
:1014F0009091080290FF0AC09E012F5F3F4F0E940B
:10150000CA094B8169818A810E94590A0F900F9004
:101510000F90DF91CF910895CF93DF93EC01EC8191
:10152000F0E0E65FFE4F4491E8E0F2E06281818105
:101530000E94720A8C818F5F8C83DF91CF91089516
:10154000CF93DF93EC01E8E0F2E0438162818C818C
:101550000E94720A8C818F5F8C83DF91CF910895F6
:101560000F931F93CF93DF9300D00F92CDB7DEB7C9
:101570008C0180915E0181110AC09E012F5F3F4F57
:101580004FEF6FEF0E94CA098A8180935E01F801D4
:101590006481613069F080915E0140E0662361F012
:1015A00040E0623011F440915E0180E060E004C0F0
:1015B00060915E0140E080E00E94590AF801848158
:1015C00090E0019663E070E00E941E2984830F90F2
:1015D0000F900F90DF91CF911F910F910895AF92CF
:1015E000BF92CF92DF92EF92FF920F931F93CF9310
:1015F000DF9300D00F92CDB7DEB7182FF62E042F51
:10160000E22E9091080290FF29C0E92FE695AE2FB7
:10161000B0E0A95DBE4F8C9180936A019E7F9230AD
:1016200059F59E012F5F3F4F812F0E94CA094B81C0
:1016300069818A810E94590A10930902F0920A0274
:1016400000930B02EE2051F06091080270910902A4
:1016500080910A0290910B020E94EB090F900F906B
:101660000F90DF91CF911F910F91FF90EF90DF903E
:10167000CF90BF90AF900895823019F400910B0283
:10168000DBCF863019F410910902D6CF8930D9F317
:10169000893191F6E9518E2F8170D82EE695F0E0D0
:1016A000E65FFD4FA590B490C12CBB246091020170
:1016B000C61618F00E94360ABFCF2C2D30E0A29E2D
:1016C000C001A39E900DB29E900D112470E00E9467
:1016D0000A29812FD11013C0860F40916101420F5A
:1016E000532F511D9A01220F331F240F351F235FE3
:1016F0003D4F402F6F2D0E94CA09C394D7CF861B40
:10170000ECCFE8E0F2E09181282F4381628188E00C
:10171000890F0C94EF0A81E00C94810BE8E0F2E071
:101720009181282F4381628188EF890F0C94EF0A01
:1017300081E00C948E0BE8E0F2E0628128E0620F19
:1017400008F46FEF282F438181810C94EF0A81E028
:101750000C949B0BE8E0F2E0628128E0621B08F445
:1017600060E0282F438181810C94EF0A81E00C9482
:10177000AA0BE8E0F2E0438128E0420F08F44FEFC3
:10178000282F628181810C94EF0A81E00C94B90BBF
:10179000E8E0F2E0438128E0421B08F440E0282F13
:1017A000628181810C94EF0A81E00C94C80B21E0E6
:1017B0000C94EF0A20E00C94EF0AEF92FF921F9333
:1017C000CF93DF93EC0110E0EE24EA94F12C6091CA
:1017D0000201161770F00E94360A9A818C8190FFE0
:1017E00027C08F5F8C83DF91CF911F91FF90EF9087
:1017F000089520916101422F410F5527551FCA01BD
:101800009A01220F331F280F391F235F3D4F70E0CD
:10181000C7010E941E29962F8C8140910B02609176
:101820000A02199F800D11240E94CA091F5FCFCFA1
:101830008150D8CFAF92BF92CF92DF92EF92FF92BA
:101840000F931F93CF93DF93FC0182810FEF80FFF3
:1018500001E010E046E0A42E809102011817C8F0C4
:101860000E94360A80916001013009F055C0811153
:1018700002C080910201815080936001DF91CF917D
:101880001F910F91FF90EF90DF90CF90BF90AF909E
:101890000895C0916101C12ED12CCC0DDD2DD11D3B
:1018A000CE01880F991FC80FD91FC35FDD4F198262
:1018B00018821A8234E0E32EF12CB12C8091600161
:1018C0008B0D87301CF16A2D0E94FC28892F082E71
:1018D000000C990BC816D90691F480910B028E9DCD
:1018E000A0018F9D500D112455954795559547950D
:1018F0009E0160910A02809109020E94CA09B00EFD
:10190000F1E0EF1AF108D1F61F5FA6CF87FFDFCF16
:1019100090910201890FDBCF90E001966091020166
:1019200070E00E941E29A8CF0F931F93CF93DF93DF
:10193000809161019091030123E0829FF0011124C5
:10194000E35FFD4F891740F1C0E0D3E060910201F1
:10195000C61740F10E94360A2091000180915F0174
:10196000820F80935F0190910101920F909301018A
:10197000191654F4082E000C990B409102014150A5
:10198000550B841795071CF0219520930001DF91DA
:10199000CF911F910F9108951182108212828F5F53
:1019A0003396D0CF0C2F10E070E0C8010E941E29A2
:1019B00020916101820F482F50E020915F01022E9B
:1019C000000C330B02171307BCF020910101022E0B
:1019D000000C330B201731077CF08D9F90011124F0
:1019E000235F3D4F40910B0260910A0280910902F2
:1019F0000E94CA09CF5FAACFFA01EE0FFF1FE40FC2
:101A0000F51FE35FFD4F118210821282F3CF0F9317
:101A10001F93CF93DF938C01FC0184819581019604
:101A20008170992795838483C0E0D5E58091020178
:101A3000C81730F0DF91CF911F910F910C94360AA7
:101A400020916101422F4C0F5527551FCA019A0161
:101A5000220F331F280F391F235F3D4F8C2F869590
:101A6000F80144815581840F952F911D817040911B
:101A70000B0260910A028D9F802D11240E94CA09D9
:101A8000CF5FD4CF0F931F93CF93DF93EC0110E080
:101A900000E0909102019017110609F06CF40E9489
:101AA000360A8C8190E00196817099278C83DF91B2
:101AB000CF911F910F91089520916101A801420FCC
:101AC000511D9A01220F331F240F351F235F3D4FF5
:101AD0004C8160910A028091090296959017110637
:101AE00051F04CF0442349F040910B020E94CA0986
:101AF0000F5F1F4FCECF4423B9F340E0F7CFE8E0AC
:101B0000F2E080818E7F8083608171818281938108
:101B10000E94EB0910926B012FEF80E792E02150B9
:101B200080409040E1F700C000000C94360AE8E0E5
:101B3000F2E080818E7F808310926B012FEF80E72F
:101B400092E0215080409040E1F700C000000C94EA
:101B5000360A60910802669570E04BE050E085E03F
:101B600091E00E944129892B19F481E080936B0157
:101B70000E94FF21909364018093630108959091E6
:101B8000080290FF35C09170811128C09260909337
:101B90000802662351F06091080270910902809159
:101BA0000A0290910B020E94EB096091080266956F
:101BB00070E04BE050E085E091E00E944129892BE4
:101BC000A1F010926B0181E08093660140910B02BD
:101BD00060910A02809109020C94DA0B853210F0B0
:101BE0009864D5CF880F982BD2CF0E94A90DEBCF48
:101BF0000895682F90910802969581E0890F8532AB
:101C000008F081E00C94BF0D81E00C94F90D682F71
:101C10009091080296958FEF890F09F484E20C9455
:101C2000BF0D81E00C94070E61E00C94BF0DE8E05D
:101C3000F2E080818160808386950C94140E8091FF
:101C4000080280FD0C947F0D0C94170E60E00C943C
:101C5000BF0D8091690181112EC00E9479208111F0
:101C600004C00E9416210E94FD090E94E7096093AA
:101C700008027093090280930A0290930B026E7F10
:101C800061F40E94FD090E94E709609308027093C5
:101C9000090280930A0290930B020E94D8091092C5
:101CA0006B018091080280FF03C086950E94260E7A
:101CB00081E0809369010895E8E0F2E0808181602D
:101CC000808386950C94260E10926B0108950F93D5
:101CD0001F93CF93DF9380916B01882309F48DC00C
:101CE00080916A01E0910802E695E81BE0936501A6
:101CF0008230C9F5F0E0EA5FFE4FE491CE2FD0E0EC
:101D00000CE81AE080916601882389F01092660140
:101D10000E94FF219E0120953095820F931F909382
:101D200064018093630110926801109267018091B1
:101D30006301909164010E9417228C179D0708F49B
:101D40005CC0E0916301F0916401CE0FDF1FD0937E
:101D50006401C093630183E691E0F801DF91CF91C4
:101D60001F910F910994863049F4F0E0ED5FFE4F2A
:101D7000E491CE2FD0E000EA1AE0C4CF893051F4CC
:101D8000E695F0E0E050FF4FE491CE2FD0E00DED6E
:101D90001BE0B8CF8F3051F4E695F0E0E350FF4FF1
:101DA000E491CE2FD0E00AE11CE0ACCF853149F4BC
:101DB000F0E0E650FF4FE491CE2FD0E004E91CE0C4
:101DC000A1CFC8EED3E007E01DE0883109F49ACF37
:101DD000833239F4E8EFF0E0C591D49100EB1AE0DA
:101DE00091CFC4EFD1E002E41DE0843209F48ACF40
:101DF000C0EDD7E009EC19E085CFDF91CF911F91BD
:101E00000F910895FA01811101C0FB010994CF934C
:101E1000DF93C82FD62F0E940C0A8C1740F00E9427
:101E20000C0A8D1720F4DF91CF910C94040E8C2FA7
:101E3000DF91CF910C94140E0F931F93CF938C01CD
:101E4000FB01C281CC2309F465C00E94CA1F8272C3
:101E5000F801E25CFC45E431F10538F4EB55F64D50
:101E60000C9432290E941F0EC0E08C2FCF911F913D
:101E70000F91089541E15EE064E07EE00E94020F70
:101E8000F3CF44E05EE061E17EE0F8CF48E95BE05B
:101E90006BE87BE0F3CF4BE85BE068E97BE0EECFFB
:101EA00046EB5BE067EA7BE0E9CF47EA5BE066EBA5
:101EB0007BE0E4CF44ED5BE065EC7BE0DFCF45EC1D
:101EC0005BE064ED7BE0DACF45E25AE064E17AE082
:101ED000D5CF44E15AE065E27AE0D0CF81E00E94BC
:101EE000140EC2CF65E082E00E94070FBDCF68E00C
:101EF00086E0FACF6EE089E0F7CF64E18FE0F4CFBF
:101F000067E185E1F1CF88E1EACF62E289E1ECCFD8
:101F100083E2E5CFC1E0A9CF3BB1242F2095232355
:101F20003BB1432B3FB7F894680F791F861797078B
:101F300011F43FBF0895FC015191CF01E8E04BB986
:101F4000000000C057FF2BB9550F000000C000C0B3
:101F500000C02BB900C0EA9591F7E8CF2AB1242B35
:101F60002AB99B01220F331F620F731F0E948C0F2F
:101F700087EC90E00197F1F700C00000089548E079
:101F80000C94AE0FCF92DF92EF92FF920F931F93BC
:101F9000CF93DF936C017B0164E670E088E70E94D9
:101FA0007314EC0197FD12C010E000E0F601E00FA1
:101FB000F11F849164E670E00E94CF14EC01892B3C
:101FC00029F40F5F1F4F0E151F0581F70E94521550
:101FD000CE01DF91CF911F910F91FF90EF90DF9095
:101FE000CF9008950895EFE1F2E080E092E0DF0104
:101FF0009C011D9221503040E1F7F0932404E093BE
:1020000023048FEF9FEF9093980180939701089599
:102010000E94F20F8093930180FD0FC080E88093AF
:1020200092010E946D146DE070E086E293E00E94E0
:10203000C20F892B21F080E0089580E2F0CF8091DB
:10204000930163E070E081FD26C083E293E00E948B
:10205000C20F892B81F76DE070E083E193E00E946D
:10206000C20F892B41F70E940B22605A75418F4F96
:102070009F4F60931F0470932004809321049093DA
:1020800022040E94F30F81E08093960180939501D2
:1020900010929401089580E293E0D9CF20919201AB
:1020A00036E0839FC0011124629F800D911D112491
:1020B000811522E0920714F090E080E0815E9D4F50
:1020C0009093240480932304089520912304309155
:1020D00024042951324040919201642F70E0C901DB
:1020E0000E940A29481B463010F4240F311D211587
:1020F00082E0380710F030E020E0215E3D4F309361
:1021000024042093230408951F93CF93DF93162F65
:102110008A3031F481E0DF91CF911F910C94FE1051
:102120008D3011F480E0F7CFC0912304D0912404C6
:1021300096E0FE01ACE6B1E001900D929A95E1F7D0
:10214000813EC8F086E0FE0111928A95E9F71111EF
:102150001EC0C0912304D091240446E050E0BE018B
:102160008CE691E00E944E29892BF9F4DF91CF9102
:102170001F910C946510F6E08F9FB00111246D5CE7
:102180007C4F46E050E0CE010E943829E0CFE0913C
:102190002304F09124049F012A5F3F4F2E173F072D
:1021A000C1F2808180958193F9CFCF51D240CE0189
:1021B00025E0969587952A95E1F721E030E0A90181
:1021C00002C0440F551F8A95E2F7CA01409197015A
:1021D00050919801842B952B269645E0D695C7956E
:1021E0004A95E1F702C0220F331FCA95E2F7822B0E
:1021F000932B9093980180939701B8CFCF93382F6A
:10220000E0912304F0912404EF51F24020919201D7
:10221000622F70E0CF010E940A29281B822F3323EE
:1022200069F066E00E94F028C82FC15010F4CF91E9
:10223000089560E080E20E948410F7CF9F01280F8C
:10224000311D2115324018F080E0F0E0E0E08E0F03
:102250009F2F911D815E9D4F9093240480932304B2
:10226000E6CF1F93CF93DF93EC01162FFE018491ED
:10227000811104C0DF91CF911F910895612F0E94B9
:1022800084102196F3CF0E940B22605A75418F4F24
:102290009F4F60931F0470932004809321049093B8
:1022A000220480919501811108C062E070E081E113
:1022B00093E00E94C20F892B19F080919501089537
:1022C00081E080939501F9CF2F923F925F926F92B8
:1022D0007F928F929F92AF92BF92CF92DF92EF92B6
:1022E000FF920F931F93CF93DF932091970130912B
:1022F00098012115310531F08091940161E070E081
:10230000882399F0DF91CF911F910F91FF90EF906B
:10231000DF90CF90BF90AF909F908F907F906F9005
:102320005F903F902F9008958F5F082F10E01B0162
:10233000082E02C0220C331C0A94E2F7A1014223AA
:102340005323452B89F39091930190FD44C08295CE
:10235000880F8076809312019801369527953695DF
:10236000279520931501815E809313011092160129
:1023700024E630E047E050E060E171E088E70E9449
:10238000FE14892B09F0BECFA80125E0440F551F8C
:102390002A95E1F78091930180FD2BC0415E5D4F4E
:1023A00004E610E020E230E060E488E70E942515B2
:1023B000892B09F0A7CF0E944311E101C095D09568
:1023C0008091970190919801C823D923D0939801C7
:1023D000C093970197CF880F880F880F80931201C1
:1023E00010921501895F8093130183E08093160199
:1023F000BFCFE2E7F1E080E2DF011D928A95E9F7C5
:10240000A0E5B1E00CE411E084E5C82E81E0D82E0F
:1024100097E0592E772473948D91E80129918E01CC
:10242000240F352F311D215E3D4FE82FF0E0EE588F
:10243000FE4F90E080E0652C681A872C082E01C0C2
:10244000880C0A94EAF77901A12CE701B9907E0182
:10245000B820662D6A196770962E062E000C770B31
:10246000DB2D01C0DD0F9A94EAF771956195710932
:102470006770772701C0B6946A95EAF7BD2A608134
:10248000962E9B289082A39468E0A612DECF019638
:1024900031968830910579F6CA16DB0609F0BCCF73
:1024A00004E610E020E230E042E751E07DCF809189
:1024B0009501882369F062E070E08FE093E00E946C
:1024C000C20F892B19F08091950108951092950102
:1024D0008091950191E089270895CF92DF92EF9244
:1024E000FF9280919601882311F160E080E00E94C4
:1024F0004E100E94E9040E94641180919501882386
:10250000B1F0C0901F04D0902004E0902104F0901E
:1025100022040E940B226C197D098E099F0997FDE8
:1025200006C0FF90EF90DF90CF900C945712FF9071
:10253000EF90DF90CF9008950F931F93CF93DF9389
:10254000C62FD42F022FFC0182818823C9F060930B
:102550009B010E94FF2190939A018093990180E250
:102560008C0F883008F050C0C77081E001C0880F20
:10257000CA95EAF7DF91CF911F910F910C94F41750
:1025800010919B01161335C08091990190919A0189
:102590000E941722883C910560F5C0E2CD0F1D17FF
:1025A000B9F080E2810F883040F4177081E001C0FB
:1025B000880F1A95EAF70E94FB17C83048F481E0AB
:1025C0009D2F977001C0880F9A95EAF70E94F41723
:1025D000802F0E94E117C830B8F4D77081E001C0A5
:1025E000880FDA95EAF7DF91CF911F910F910C9444
:1025F000FB1780E28C0F883038F4C77081E001C08F
:10260000880FCA95EAF7EFCFDF91CF911F910F9115
:1026100008959C01CB01233F4CE5340731F190F440
:10262000283DFCE53F07E9F0293D4CE5340769F119
:10263000273D3C4579F426E241EE61EE0E949C1272
:1026400080E00895253FFCE53F07B9F090F0263F74
:102650003C45B9F0FC0182818823D1F010929B01A6
:10266000089527E245EE65EEE9CF26E241EE60EE01
:10267000E5CF27E245EE64EEE1CF26E241EE62EEE1
:10268000DDCF27E245EE66EED9CF28E241E0EBCF81
:1026900081E00895CF93DF93EC01FB0182818823D1
:1026A00009F419C1C230FCE5DF07C0F1C6319CE571
:1026B000D90730F09E012A5F3C452930310570F57D
:1026C0000E948C2090932A0480932904C031ECE569
:1026D000DE0709F4CFC008F05BC0C8308CE5D8072E
:1026E00009F4B6C088F5C430ECE5DE0709F4A8C0EB
:1026F000C0F4C2308CE5D80709F49CC0809129044D
:102700008260C330DC4509F498C08091290490911F
:102710002A040E949A200E94241A80E0DF91CF911F
:102720000895809129048061C630ECE5DE0709F444
:1027300084C0809129048860C730DC4508F47DC0DE
:1027400080912904806279C0CC308CE5D80709F4E7
:1027500089C070F4809129048C60CA30ECE5DE07F2
:1027600009F46BC008F478C0809129048E7F65C09D
:10277000CE308CE5D80709F479C0809129048B7F8D
:10278000CF30DC4508F459C0809129048F7E55C0B4
:10279000CB3FECE5DE0709F457C030F5C3318CE5DB
:1027A000D80709F46FC078F4C131ECE5DE0709F40D
:1027B00065C0C231DC4509F0A8CF0E94241A80917F
:1027C00029048F773AC0C5318CE5D80709F462C077
:1027D00008F476C080912A048160CA3FDC4509F084
:1027E00094CF80932A0491CFCF3FFCE5DF0709F413
:1027F0004DC088F480912A048D7FCD3F9CE5D90798
:1028000081F380912A048E7FCE3FDC4550F3809186
:102810002A048360E6CFC130FDE5DF0709F459C023
:1028200008F444C080E0C230DD4509F06ECF0E945C
:1028300018216BCF8091290481608093290465CF92
:10284000809129048460F9CF80912A048260C9CFE5
:10285000809129048064F1CF0E94241A8091290478
:102860008068EBCF809129048D7FE7CF8091290488
:10287000877FE3CF809129048F7DDFCF809129046A
:102880008F7BDBCF80912904837FD7CF80912A046F
:102890008C7FA7CF8091290482FB992790F921E0B2
:1028A000922790FB82F990FB83F9C7CF80912A048D
:1028B000982F909591708E7F892B90FB81F991CF05
:1028C0000E94241A90912904892F97FB87F9805838
:1028D000B4CF81E0ACCF81E021CF1092B9008CE081
:1028E0008093B8000895EF92FF920F931F93CF93B8
:1028F000DF93182FEB011092BC0084EA8093BC0098
:102900000E94FF217C018091BC0087FF27C080913D
:10291000B900887F883029F08091B900887F8031A4
:10292000D9F51093BB0084E88093BC000E94FF217E
:102930008C018091BC0087FF24C02091B900287FC2
:1029400090E080E02831B1F081E090E0203411F493
:1029500090E080E09195819591090CC0CF3FDC0714
:1029600091F20E94FF218E199F098C179D0758F242
:102970008EEF9FEFDF91CF911F910F91FF90EF901E
:102980000895CF3FDC07A9F20E94FF21801B910B25
:102990008C179D0770F2ECCF8FEF9FEFEBCF0F936B
:1029A0001F93CF93DF93EB018093BB0084E8809368
:1029B000BC000E94FF218C018091BC0087FF11C0E8
:1029C0002091B900287F81E090E0283211F490E056
:1029D00080E0919581959109DF91CF911F910F91A1
:1029E0000895CF3FDC0741F30E94FF21801B910B2C
:1029F0008C179D0708F38EEF9FEFEECFCF92DF92FB
:102A0000EF92FF920F931F93CF93DF936B018A0195
:102A10007901B9010E947314E6010C0D1D1DC01748
:102A2000D10761F424E92093BC00DF91CF911F917D
:102A30000F91FF90EF90DF90CF90089597FDF2CF28
:102A4000B70189910E94CF14EACFCF92DF92EF9223
:102A5000FF920F931F93CF93DF93C62F6A017901E3
:102A6000B8010E94731497FD0CC0B8018C2F0E940E
:102A7000CF14E601EC0CFD1CCE15DF0511F097FF1D
:102A80000CC024E92093BC00DF91CF911F910F91DE
:102A9000FF90EF90DF90CF900895B80189910E9448
:102AA000CF14EACF84E98093BC0008959093A101EC
:102AB0008093A0010895E091A001F091A1013097C9
:102AC00021F00190F081E02D099480E00895E091DB
:102AD000A001F091A101309721F00280F381E02D57
:102AE0000994089520919E0130919F01281739077C
:102AF00071F090939F0180939E01E091A001F0916D
:102B0000A101309721F00680F781E02D0994089506
:102B100020919C0130919D012817390771F0909305
:102B20009D0180939C01E091A001F091A10130975B
:102B300021F00084F185E02D0994089585B780681F
:102B400085BF85B7806885BF0895089508950C9462
:102B5000A5150C94E8040E949E150E94A6150C94DD
:102B6000A71581E008950E94F6210E94670880E081
:102B70000E9408100E9489220E94290E0C94A91517
:102B8000AF92BF92CF92DF92EF92FF920F931F937B
:102B9000CF93DF93CDB7DEB72A970FB6F894DEBF99
:102BA0000FBECDBF0E949C08B82E0E94B11588238D
:102BB00009F464C023EAC22E21E0D22E10E000E026
:102BC000A02E802F0E946108E82EF601F1906F017F
:102BD000F81609F44DC08091F90181FD0E9460084A
:102BE0008F2D8E25F82FF170FF2E80FD3FC081FFC5
:102BF0003FC081E092E0F92E8E83AF82EF2081E02A
:102C000009F480E088870E94FF218160782F9A87ED
:102C100089874E815F8168858A850E946016F801E8
:102C2000ED55FE4F80818F2580830E946D12B1107B
:102C30000E9443110E945B159091A201891779F1BE
:102C40000E945B158093A2012A960FB6F894DEBF0E
:102C50000FBECDBFDF91CF911F910F91FF90EF90ED
:102C6000DF90CF90BF90AF900C943B0580E0C4CF35
:102C70000F5F1F4F0330110509F0A2CF8FEF89833B
:102C80008A831B820E94FF218160782F9D838C8321
:102C900049815A816B818D810E946016C6CF2A9628
:102CA0000FB6F894DEBF0FBECDBFDF91CF911F915D
:102CB0000F91FF90EF90DF90CF90BF90AF9008956D
:102CC000CF93DF93CDB7DEB72B970FB6F894DEBF67
:102CD0000FBECDBF4F83588769877A878B871E8247
:102CE0001D8285E0FE013796DE01119601900D925E
:102CF0008A95E1F749815A816B817C818D819E8122
:102D00002B960FB6F894DEBF0FBECDBFDF91CF91EB
:102D10000C94C41CFC01808191810C94771F882342
:102D200009F4FFC08238B9F40E945B1581FDF9C037
:102D300089E30E94A51F0E9416202FEF81EE94E0E8
:102D4000215080409040E1F700C0000089E30E94DC
:102D5000AC1F0C9416208338A1F40E945B1580FDF3
:102D6000E0C083E50E94A51F0E9416202FEF81EE90
:102D700094E0215080409040E1F700C0000083E5DE
:102D8000E6CF8438A1F40E945B1582FDCAC087E4B7
:102D90000E94A51F0E9416202FEF81EE94E0215083
:102DA00080409040E1F700C0000087E4D0CF9CEF66
:102DB000980F913A18F40E94A51FCBCF90E2980F7C
:102DC000983050F4877091E001C0990F8A95EAF726
:102DD000892F0E94CD1FBDCF9BE5980F933070F4D3
:102DE000853A31F0863A39F083E890E00C94721518
:102DF00081E890E0FBCF82E890E0F8CF98E5980F6B
:102E0000973108F08EC0883A09F446C0893A09F42F
:102E100046C08A3A09F446C08B3A09F446C08C3A57
:102E200009F446C08B3B09F446C08C3B09F446C00C
:102E30008D3A09F446C0803B09F446C08E3A09F445
:102E400046C08F3A09F446C0813B09F446C0823B34
:102E500009F446C0833B09F446C0843B09F446C0EC
:102E6000853B09F446C0863B09F446C0873B09F41C
:102E700046C0883B09F446C0893B09F446C08D3BF7
:102E800009F446C08E3B09F446C08A3B09F446C0AB
:102E900090E080E00C94881582EE90E0FBCF89EE04
:102EA00090E0F8CF8AEE90E0F5CF85EB90E0F2CF9E
:102EB00086EB90E0EFCF83EB90E0ECCF84EB90E0FB
:102EC000E9CF87EB90E0E6CF8CEC90E0E3CF8DECA0
:102ED00090E0E0CF83E891E0DDCF8AE891E0DACFBF
:102EE00082E991E0D7CF84E991E0D4CF81E292E00A
:102EF000D1CF83E292E0CECF84E292E0CBCF85E2E5
:102F000092E0C8CF86E292E0C5CF87E292E0C2CFDE
:102F10008FE690E0BFCF80E790E0BCCF8AE292E0FE
:102F2000B9CF0895882309F44BC0823871F40E9408
:102F30005B1581FF45C089E30E94A51F0E941620F2
:102F400089E30E94AC1F0C941620833859F40E9428
:102F50005B1580FF35C083E50E94A51F0E941620E7
:102F600083E5EFCF843859F40E945B1582FF28C0B7
:102F700087E40E94A51F0E94162087E4E2CF9CEF01
:102F8000980F913AF0F290E2980F983050F48770D1
:102F900091E001C0990F8A95EAF7892F0E94D31F0B
:102FA000D2CF9BE5980F933020F490E080E00C9412
:102FB0007215885A873120F490E080E00C948815CF
:102FC0000895CF93C82F0E948F16C93349F42FEF6D
:102FD00087EE93E0215080409040E1F700C0000070
:102FE0008C2FCF910C949217882321F00E94CD1F33
:102FF0000C9416200895882321F00E94D31F0C946E
:1030000016200895BF92CF92DF92EF92FF920F9316
:103010001F93CF93DF936C01D62FC72FFC0115812F
:1030200012951F70028101110E94EA1F0E94C31FA6
:10303000E82E882371F00023B1F080E28D0F8830F4
:1030400090F082E00E9461200E94C31F91E0E82E70
:10305000E926BC2EB2949FE0B922EB2DF0E0E754B4
:10306000F64D0C943229E12CF4CF1C2F1F70C07F39
:1030700011F01295107F0023A9F0112359F080E27E
:103080008D0F883010F0D11109C0812F0E94CD1F03
:103090000E9416208D2F0E948F1614C0812F0E942F
:1030A000DD1FF6CF8D2F0E949217112359F080E279
:1030B0008D0F883010F0D1112CC0812F0E94D31FAA
:1030C0000E9416202B2D2850330B2430310520F47C
:1030D0000E945B150E943B05EE2009F477C10E9417
:1030E000BF1F80FD73C1F60112820E94B91F0E94AA
:1030F000481EC6010E94F0190E94B91FDF91CF91AE
:103100001F910F91FF90EF90DF90CF90BF900C94A4
:10311000691E812F0E94E31FD3CFFC2FFF70FF2E6B
:10312000C07FC03219F0F29480EFF822DD2369F0FD
:10313000D13049F1002391F1112351F1F60185813C
:1031400080FFA8CF8F70858323C0002381F01111E9
:1031500006C00E94FD1F8F290E94F417B3CF1130C3
:10316000C1F70E94FD1F8F290E940320ABCF1111D0
:1031700006C00E940C208F2D0E94FB17A3CF113098
:1031800009F4A0CFF6CF002329F0163008F09ACF2B
:103190008F2DE2CF153008F095CFEDCF112359F3E5
:1031A000D93349F4FFEF27EE33E0F15020403040AF
:1031B000E1F700C000008D2F0E94921783CF8C2F63
:1031C000837009F041C001117DCF4D2F4295469586
:1031D0004770440F440F0D2F0F7010E030E020E0D7
:1031E000042E04C0000F111F221F331F0A94D2F7B0
:1031F00060E070E0CB01D4FF0FC06FE070E080E0D2
:1032000090E004C0660F771F881F991F4A95D2F778
:103210006095709580959095C695C695C370602B06
:10322000712B822B932BC23049F058F4C13019F026
:103230000E94FA1D47CF0E94E81D44CF0E940C1E39
:1032400041CF0E94E61D3ECF8695002311F08C2FC2
:103250008170882309F436CF4D2F429546954770EB
:10326000440F440F0D2F0F7010E030E020E0042ECB
:1032700004C0000F111F221F331F0A94D2F760E011
:1032800070E0CB01D4FF0FC06FE070E080E090E011
:1032900004C0660F771F881F991F4A95D2F7609563
:1032A000709580959095C695C695C370602B712BCF
:1032B000822B932BC23049F058F4C13019F00E9490
:1032C000BF1E00CF0E94AD1EFDCE0E94D11EFACEC1
:1032D0000E94221EF7CECF70002329F08C2F0E946F
:1032E000481E8D2F39CF8D2F0E94FB178C2F0E94E7
:1032F000691EE8CED23F89F160F4D03FC9F0D13FDA
:1033000029F1002309F442C01111C4CE8C2F8F7112
:1033100021C0D33F39F1D43FA1F7002369F1CF7128
:103320008C2F0E94481E63E08C2F0E944C20CACE36
:10333000002341F0153008F0C5CE8C2F8F710E940C
:103340008C1EC0CE163008F0BDCEF7CF8C2F8F71FB
:10335000002369F20E94481EB5CE8C2F8F71002386
:10336000C9F3C5CF002329F08C2F8F710E94331E23
:10337000A9CE0E942E1EA6CE81E00E9461201230AE
:1033800008F4A0CE82E00E9461209CCE112359F067
:10339000D93309F010CF8FEF97EEE3E081509040E2
:1033A000E040E1F706CF8C2F8F71A1CF4C2F4F70EB
:1033B0006D2FC6010E94B1050E945E1D83CE4C2F69
:1033C0004F706D2FC6010E94B4057CCEDF91CF9166
:1033D0001F910F91FF90EF90DF90CF90BF900895D5
:1033E0000F931F93CF93DF93EC018B819C81892BEB
:1033F00029F08881998189238F3F29F4DF91CF912A
:103400001F910F910895CE010E9453058823B1F3B7
:10341000688179818A810E94811F8C010E94E31E4C
:103420000E94E51DB801CE01DF91CF911F910F9150
:103430000C9402180E94EA1F0E94FA1F0C94162096
:103440000E94B31F0C941A1A0E94DA1F0C94201ABF
:10345000E92FE295EF70E250EE3070F4F0E0E753C0
:10346000F64D0C943229803F19F020F4883E20F468
:1034700081E00895843FE1F380E00895883EC0F341
:10348000813FD1F7F5CF93FB882780F908950E94FB
:10349000771F0C94281ACF93DF9300D000D00F929F
:1034A000CDB7DEB70F900F900F900F900F90DF9178
:1034B000CF910895CF93DF9300D000D000D0CDB747
:1034C000DEB726960FB6F894DEBF0FBECDBFDF91F4
:1034D000CF9108951F93CF93DF93C091A70116E07A
:1034E0008091A8018C1304C0DF91CF911F910895A2
:1034F000D0E01C9FF0011D9FF00D1124E755FE4FF9
:103500004081518162817381848195810E945A1A20
:103510002196C770E5CF4091D9015091DA016091B1
:10352000DB017091DC018091DD019091DE010C9452
:103530005A1A1F93CF93DF938091DE01807FC1F4ED
:103540008091DB018823A1F08091A701C091A8019F
:103550006091D9017091DA014091DC015091DD0157
:10356000D62FD723DA01A095B09516E0C81304C072
:10357000DF91CF911F91089590E04115510511F011
:10358000DF3F31F401968770F1CF2A0F3B1F17C040
:10359000189FF001199FF00D1124E755FE4F21816E
:1035A0002713F0CF20812613EDCF22812111EACFFE
:1035B000238134812417350740F3241B350B283C25
:1035C000310500F72091DE012F7020612093DE018C
:1035D00026E0289FF001299FF00D1124E255FE4FAF
:1035E00080818F708061808389ED91E00E94F01965
:1035F000DF91CF911F910C946A1ABF92CF92DF9204
:10360000EF92FF920F931F93CF93DF93CDB7DEB767
:1036100061970FB6F894DEBF0FBECDBF8C0185E079
:10362000F801DE011D9601900D928A95E1F7D8010F
:103630004C9111965C9111971296EC901297809193
:10364000DC019091DD01009709F47FC12091D9013F
:103650003091DA01622F63236F3F09F476C113962C
:10366000CD90DC90B090DB01BB2009F411C1C816ED
:10367000D906D0F1F601E81BF90BCF01FF24F39432
:10368000883C910508F0F12C8091DE01982F907F05
:10369000FF2009F4B8C091117FC0FE2C351329C05A
:1036A000241327C0E11025C08F7080618093DE0154
:1036B0000E948B1A89ED91E00E94F0198091DE0141
:1036C000D80115968C938F2D61960FB6F894DEBFB6
:1036D0000FBECDBFDF91CF911F910F91FF90EF9063
:1036E000DF90CF90BF900895809590958C0D9D1D93
:1036F000C5CFCD2829F0852F84238F3F09F041C104
:1037000080E0B82FB170DB2E80FF3CC08091A70114
:103710002091A80136E0821315C04D875E878D8504
:103720009E850E94771F292F22952F702230F0F05E
:10373000243018F59F70F1F0F8019581907FD1F455
:10374000D12C1EC090E0389FF001399FF00D11245C
:10375000E755FE4F6181651306C06081641303C0A5
:103760006281E6120FC001968770D5CF9F7011F06D
:10377000882331F3805E883018F3C8010E94F01965
:10378000FD2CA1CFEE2009F49ECF8091DE01816057
:103790008093DE01F12C97CF351306C0241304C0AB
:1037A000D801EE2009F49AC04D875E878D859E85ED
:1037B0000E94471A882319F1EE2009F18091DE0159
:1037C000803270F02091D9013091DA0138872F834F
:1037D0001986DB86CA868C87CE0107960E94F0196F
:1037E00086E0F801A9EDB1E001900D928A95E1F72C
:1037F0000E94991A0E948B1AFF24F39464CFC80187
:103800000E94F019F9CF911113C07C2DD98AC88A72
:103810006E2D89890E944B1A89ED91E00E94F01962
:1038200086E0E9EDF1E0DF011D928A95E9F763C0DA
:10383000351312C0241310C0E1100EC0F8018583A7
:10384000C8010E94F019E9EDF1E086E0DF011D9268
:103850008A95E9F7FB2C37CF4D875E878D859E854E
:103860000E94471A882359F2EE2049F28091DE0126
:10387000803208F4B5CF2091D9013091DA013A8332
:1038800029831B82DD82CC828E83CE010196A6CF56
:10389000C816D90698F1F601E81BF90BCF01F12CF7
:1038A000883C910508F049C0FE2CEE2009F4A7CF12
:1038B000351332C0241330C08091DE0180FD23C057
:1038C000982F907F01F1D80115968C931597903F12
:1038D00039F0982F907F905F8F70892B15968C937D
:1038E000C8010E94F01986E0F801A9EDB1E001904D
:1038F0000D928A95E1F70E948B1AE5CE80959095FE
:103900008C0D9D1DCCCF86E0F801A9EDB1E00190B2
:103910000D928A95E1F7D7CE4D875E878D859E857E
:103920000E94471A81115CCF8091DE0181608093F3
:10393000DE01C8010E94F019C6CE7C2DD98AC88A42
:103940006E2D89890E944B1A6BCFEE2009F457CF58
:103950004D875E878D859E850E94471AF82E8823A5
:1039600009F44DCF86E0F801A9EDB1E001900D9288
:103970008A95E1F789ED91E00E948A160E94991AD2
:10398000BACF81E08E25BDCE1F93CF93DF93CDB705
:10399000DEB72C970FB6F894DEBF0FBECDBF4F83B6
:1039A000588769877A878B879C87CE0107960E9404
:1039B000FD1A882369F08A859B85892B39F04F8110
:1039C0005885842F85238F3F09F071C016E05FC0B2
:1039D00086E0FE013796DE01119601900D928A95E0
:1039E000E1F78A859B85892B89F388859F818923C7
:1039F0008F3F61F32091A80130E0C90101968770E3
:103A000099274091A7014817190671F40E94241ABA
:103A10001092A8011092A70186E0E9EDF1E0DF0124
:103A20001D928A95E9F7D2CF96E0929FD001939F9D
:103A3000B00D1124A755BE4FFE01319601900D9295
:103A40009A95E1F78093A8010E946A1ABFCF819FDF
:103A5000C001112487559E4F0E94FD1A8823E9F06A
:103A6000E091A7011E9FF0011124E755FE4F408110
:103A7000518162817381848195810E945A1A80915B
:103A8000A70190E00196877099278093A701809104
:103A9000A7019091A8018913DACF2C960FB6F8945C
:103AA000DEBF0FBECDBFDF91CF911F910895698515
:103AB0007A858B859C850E945A1A88CFEF92FF9257
:103AC0000F931F93CF93DF938C01892B81F0F12CFF
:103AD000EE24E394E8012196F8018491843770F490
:103AE000843008F05FC08130B1F08230A1F1DF9105
:103AF000CF911F910F91FF90EF900895853709F4B2
:103B00004CC008F43DC09CE7980F903780F78F7742
:103B10000E94921749C00E5F1F4FFE01849190E2F0
:103B2000980F983060F48770FE2D01C0FF0F8A95C2
:103B3000EAF78F2F0E94ED1F0E94162002C00E94FC
:103B40008F168F2D815030F2EFE9FFE03197F1F7BA
:103B500000C00000F7CF0E5F1F4FFE01849190E27E
:103B6000980F983050F48770FE2D01C0FF0F8A9592
:103B7000EAF78F2F0E94F31FDFCF0E949217E1CF49
:103B80000E5F1F4FFE01C491C150D8F28FE99FE034
:103B90000197F1F700C00000F7CF0E5F1F4FFE0145
:103BA000F490CFCF0E948F168E01CBCF08950C9446
:103BB000D61D0E94D71D6093E8017093E9018093A0
:103BC000EA019093EB010C941A1A08950C94D91DF4
:103BD0000F931F930091E8011091E9012091EA01F0
:103BE0003091EB01602B712B822B932B1F910F9146
:103BF0000C94D91D0F931F930091E8011091E901D6
:103C00002091EA013091EB016023712382239323F9
:103C10001F910F910C94D91D0F931F930091E801F0
:103C20001091E9012091EA013091EB0160277127A1
:103C3000822793271F910F910C94D91D0C94D61DA8
:103C40000C941E1E0E94201E6093E4017093E501F7
:103C50008093E6019093E7010C941A1A60E070E0FB
:103C6000CB010C94221E0F931F9341E050E060E0C3
:103C700070E08A019B0104C0000F111F221F331F37
:103C80008A95D2F7C901B8011F910F910C94221E99
:103C90000F931F9341E050E060E070E004C0440FD8
:103CA000551F661F771F8A95D2F78091E401909186
:103CB000E501A091E601B091E7018A019B01082B83
:103CC000192B2A2B3B2BC901B8011F910F910C9482
:103CD000221E0F931F9341E050E060E070E004C0AB
:103CE000440F551F661F771F8A95D2F7CB01BA0183
:103CF00060957095809590950091E4011091E50193
:103D00002091E6013091E701602371238223932300
:103D10001F910F910C94221E0F931F9341E050E0CE
:103D200060E070E004C0440F551F661F771F8A953E
:103D3000D2F78091E4019091E501A091E601B09164
:103D4000E7018A019B01082719272A273B27C90178
:103D5000B8011F910F910C94221E0F931F93009195
:103D6000E4011091E5012091E6013091E701602B1B
:103D7000712B822B932B1F910F910C94221E0F936A
:103D80001F930091E4011091E5012091E60130912B
:103D9000E70160237123822393231F910F910C94D9
:103DA000221E0F931F930091E4011091E5012091D1
:103DB000E6013091E70160277127822793271F9141
:103DC0000F910C94221E0895990F890F982F9770C8
:103DD00041E001C0440F9A95EAF78695869586954D
:103DE00095E0899FF0011124E152FE4F30E020E080
:103DF00070E05191DF011197CB01022E02C0969520
:103E000087950A94E2F78170819585278423852719
:103E10008C932F5F3F4F2530310559F70895990F47
:103E2000890F982F977086958695869525E0829FB5
:103E3000F0011124E152FE4F50E040E080E021917A
:103E400030E0092E02C0369527950A94E2F72170DA
:103E50003327042E01C0220F0A94EAF7822B4F5F0A
:103E60005F4F4530510559F70895BF92CF92DF92C9
:103E7000EF92FF920F931F93CF93DF938C01C0902B
:103E8000E401D090E501E090E601F090E701809137
:103E9000E8019091E901A091EA01B091EB01C82AF3
:103EA000D92AEA2AFB2ACFE1D0E0BC2ED701C601ED
:103EB0000C2E04C0B695A795979587950A94D2F7CE
:103EC00080FD0EC0219788F7B12C8B2DDF91CF910B
:103ED0001F910F91FF90EF90DF90CF90BF900895CA
:103EE000B8018C2F0E94CF05019761F3EECFCF93DD
:103EF000DF93EC010E94351FBE01DF91CF910C943E
:103F0000CF051F93CF93DF93EB019091A6019923E7
:103F100031F0CB01DF91CF911F910C94771F882353
:103F200079F0CB010E94351F182F682FCE010E9417
:103F3000E41EBE01812FDF91CF911F910C94CF051C
:103F4000CB010E940F1F182FF4CF682F809117010B
:103F5000909118010C945621682F8091170190912F
:103F600018010C94582180911701909118010C941C
:103F70005A218091EC0185958595859508958091CC
:103F8000EC01877008959091EC01977081E009F43D
:103F900080E008958091F80108959091F801892BAF
:103FA0008093F801089580959091F801982390935B
:103FB000F80108951092F80108959091F701892B66
:103FC0008093F701089580959091F701982390933D
:103FD000F70108951092F70108959091F601892B49
:103FE0008093F601089580959091F601982390931F
:103FF000F60108951092F60108958091ED0108955B
:1040000008950C9400209091ED01981721F0809371
:10401000ED010C94012008958091ED01882329F091
:104020001092ED0180E00C9401200895E0911701B9
:10403000F09118018091F8018083E0911701F091CF
:10404000180180819091F701892B8083E0911701FD
:10405000F091180180819091F601892B80839091D5
:10406000ED01992381F0E0911701F0911801808111
:10407000892B808380911701909118010E941D2146
:1040800081110E940C2080911701909118010C94CD
:10409000671508950C94492098E0899F9001112498
:1040A000622B6093EC010E94481E8091EC01859583
:1040B000859585950C944A201092EC0180E00C9433
:1040C0004A209091EC01809589238093EC01282F60
:1040D000277071F4282F082E000C330B921713064B
:1040E00039F08595859585950E94691E0C945C2014
:1040F000089590E080E00E94692921E08C3E9E4F67
:1041000009F020E0822F089582E090E00C945B2972
:1041100083E090E00C945B29CF9384E090E00E94D0
:104120005B29C82F81E290E00E945B29982F8C2F99
:10413000CF910895CF93C92F682F84E090E00E941B
:104140006F296C2F81E290E0CF910C946F29AB0125
:10415000BC018FE090E00C948129AB01BC0183E1AC
:1041600090E00C94812960E070E0CB010C94AD20CC
:1041700060E070E0CB010E94A7200C94B3206CEEAD
:104180007EEF90E080E00E948D2960E082E090E088
:104190000E946F2960E083E090E00E946F291092F6
:1041A000E8011092E9011092EA011092EB0160E03F
:1041B00084E090E00E946F2960E081E290E00E943C
:1041C0006F2960E085E090E00E946F2960E086E062
:1041D00090E00E946F296FEF87E090E00E946F29C6
:1041E00040E050E0BA0188E090E00E94812960E060
:1041F0008DE090E00E946F2940E050E0BA0188E134
:1042000090E00E94812960E087E190E00E946F29A0
:1042100040E050E0BA018CE190E00E94812960E02A
:1042200080E290E00E946F290C94B8200C94BF208B
:10423000682F8EE090E00C946F299C012E5F3F4F19
:10424000AC01485F5F4F80E02417350709F40895FB
:10425000F90191919F019923B9F38F5FF5CF9C01EB
:10426000FC0132969FEF80E04191461751F09F3F4D
:1042700019F4411101C0982F8F5F8630A9F79F3F35
:1042800009F40895290F311D97FD3A95F9016283CC
:104290000895FC01329608962191261303C0DF0190
:1042A00011971C92E817F907B9F708950C942F217C
:1042B0000C944921029626E0FC0111922A95E9F717
:1042C0000895089508950C9462210E9463218091BD
:1042D0002F04843009F439C01092FA0188E190E08B
:1042E00020E40FB6F894A895809360000FBE209349
:1042F000600080E00E943B050E94640E8091FB01FB
:1043000081110AC081E08093FB01809108028170D5
:104310008093FC010E94970D0E94632183B7817FE7
:10432000846083BF83B7816083BF7894889583B7A7
:104330008E7F83BF0FB6F894A89580916000886146
:1043400080936000109260000FBE08950895CF938F
:104350000E9461210E949C080E94A621C0E08C2F2F
:104360000E946108811105C0CF5FC330C1F7CF91B2
:10437000089581E0FCCF08950C94BB210E94241A7B
:104380000E945B150E943B051092FB018091FC018D
:1043900081110E945C0E0E94A90D0C94BC211F92F9
:1043A0001FB61F9211248F939F93AF93BF93809159
:1043B000FA01811113C08091250490912604A091E7
:1043C0002704B09128044196A11DB11D80932504B6
:1043D00090932604A0932704B0932804BF91AF9133
:1043E0009F918F911F901FBE1F90189582E084BDF2
:1043F00093E095BD9AEF97BD80936E0008952FB717
:10440000F8948091250490912604A0912704B091FE
:1044100028042FBF08952FB7F89460912504709158
:10442000260480912704909128042FBF0895CF92ED
:10443000DF92EF92FF920F931F932FB7F894409162
:1044400025045091260460912704709128042FBF01
:104450006A017B01EE24FF248C0130E020E0C016CD
:10446000D106E206F30650F0481B590BCA011F9112
:104470000F91FF90EF90DF90CF9008954150510938
:10448000F3CF78941F921FB61F9211248F939F939E
:10449000AF93BF938091250490912604A0912704A7
:1044A000B09128040196A11DB11D8093250490931D
:1044B0002604A0932704B0932804BF91AF919F9145
:1044C0008F911F901FBE1F90189581E08093E00090
:1044D00080E28093D8001092C9008FE19EE401979A
:1044E000F1F700C0000087E090EBDC018093380416
:1044F00090933904A0933A04B0933B0488E19CE084
:104500000FB6F894A895809360000FBE909360005A
:10451000FFCF0E947920811102C00E9416210E94C3
:1045200084208093F9010E948C2090932A04809328
:1045300029040E948820682F70E090E080E00C94AD
:10454000E61D80910502089508950895CF93DF93A5
:10455000EC010E944224823011F0843039F581E070
:104560008093E9008FEF9091E800815095FD06C09F
:1045700095ED9A95F1F700008111F5CF8091E80053
:1045800085FF14C050E040E068E070E0CE010E947A
:104590005F248091E8008E778093E80088E0FE0138
:1045A000ADEFB1E001900D928A95E1F7DF91CF91E7
:1045B0000895089580912E04811109C00E94EF256D
:1045C0000E944C268091E20084608093E20008956E
:1045D00010922E040895089508950C94BE2142E08F
:1045E00061EC81E00C946B2580913104833009F4F7
:1045F0005FC030F48130C1F1823009F49BC008956E
:104600008A3009F487C08B3009F46DC0893009F015
:104610004EC080913004813209F049C08091340449
:1046200090913504892B09F042C08091E800877F82
:104630008093E8008091E80082FF35C09091F300FC
:104640008091F200029729F48091F1008B7F8130F4
:1046500021F48091F100809305028091E8008B772E
:104660008093E8000C949F2580913004813AF9F4FE
:104670008091E800877F8093E800809134049091D6
:104680003504892B61F468E08DEF91E070E00E94C1
:10469000AE248091E8008B778093E800089560E075
:1046A00090E080E0F3CF80912F048111C3CF089573
:1046B00080913004813AD9F7809134049091350487
:1046C000892BA9F78091E800877F8093E80080918B
:1046D000E80080FFFCCF809123018093F10080915E
:1046E000E8008E77BDCF80913004813201F7809150
:1046F000340490913504892BD1F68091E800877FAE
:104700008093E8000E949F258091320480932301CA
:104710000C94241A80913004813249F68091E8008B
:10472000877F8093E8000E949F25809133048093C7
:104730000602089580913004813A09F0B8CF809143
:10474000E800877F8093E8008091E80080FFFCCF3D
:1047500080910602C2CF84B7877F84BF0FB6F894DA
:10476000A89580916000886180936000109260003D
:104770000FBE80E890E00FB6F894809361009093AC
:1047800061000FBE0E94AB150E94EF250E944C26CF
:104790008091E20084608093E20078940E94D528A2
:1047A0000E94B31589E191E00E94561580912F0473
:1047B000853029F00E94C0150E94670EF7CF0E9435
:1047C000652180912D04882389F30E94A7218823E5
:1047D00069F30E944924EACF0C94EE23292F332752
:1047E00023303105C9F058F421303105C9F12230A8
:1047F0003105D9F190E080E030E020E020C02132A6
:10480000310539F122323105A9F780E490E021EE3B
:1048100038E0672B79F713C099278130910599F01B
:10482000009741F08230910589F0039719F7E3E78B
:10483000F8E002C0E9EAF8E0849190E09F01FA0113
:10484000318320830895E7E9F8E0F6CFE9E7F8E05F
:10485000F3CF89E090E02FEB38E0672B59F6EFCFEC
:1048600082E190E02FEC38E0EACF82E290E02DEA9E
:1048700038E0E5CF80912F04843011F482E0089570
:1048800081E0089580910702811102C00C943A24BE
:10489000089580E189BD82E189BD09B400FEFDCFA4
:1048A0008091D8008F7D8093D8008091E000826055
:1048B0008093E0008091E00081FDFCCF0895AF92ED
:1048C000BF92CF92DF92FF920F931F93CF93DF930C
:1048D0006C01EB018A010E94BE25F82E811123C0D4
:1048E0000115110539F0F80180819181C81BD90BA0
:1048F000C80ED91EB12CA12C2097A9F08091E800F8
:1049000085FD22C08091E8008E778093E800011534
:104910001105A1F0F80180819181A80EB91EB18224
:10492000A08285E0F82E8F2DDF91CF911F910F91FE
:10493000FF90DF90CF90BF90AF9008950E94BE256A
:104940008823D1F2F82EEFCFF60181916F01809389
:10495000F1002197FFEFAF1ABF0ACECFFC01809183
:1049600036049091370486179707A0F061157105FA
:1049700029F49091E8009E779093E80090E061150B
:10498000710551F4911108C08091E80082FF34C094
:1049900080E00895BC01F2CF80912F048823C1F1FB
:1049A0008530C1F18091E80083FD30C08091E8003E
:1049B00082FDEACF8091E80080FFE1CF8091F30093
:1049C0002091F200382F6115710519F0283031055A
:1049D00058F091E02830310509F090E02091E8008E
:1049E0002E772093E800CBCF81918093F100615026
:1049F00071092F5F3F4FE7CF80912F04882341F04B
:104A0000853041F08091E80083FFBECF81E00895BA
:104A100082E0089583E00895FC018091360490912E
:104A2000370486179707A0F06115710529F4809166
:104A3000E8008E778093E80090E06115710551F4ED
:104A4000911108C08091E80082FF35C080E0089590
:104A5000BC01F2CF80912F048823C9F18530C9F1C0
:104A60008091E80083FD31C08091E80082FDEACFAB
:104A70008091E80080FFE1CF8091F3002091F20067
:104A8000382F6115710519F02830310558F091E083
:104A90002830310509F090E08091E8008E7780930E
:104AA000E800CBCF84918093F10031966150710979
:104AB0002F5F3F4FE6CF80912F04882341F0853050
:104AC00041F08091E80083FFBDCF81E0089582E04E
:104AD000089583E00895982F973028F08F70809381
:104AE000E90081E008959093E900242F762F50E0AB
:104AF000981731F07091EC002091ED005091F0008A
:104B000021FD02C09F5FE8CF3091EB003E7F3093E4
:104B1000EB003091ED003D7F3093ED003091EB00E4
:104B200031603093EB007093EC002093ED005093D4
:104B3000F0002091EE0027FDE5CF80E00895809100
:104B4000300487FF13C08091E80082FF06C0809187
:104B5000E8008B778093E80004C080912F048111D6
:104B6000F2CF089580912F048823D9F38091E80033
:104B700080FFF8CF8091E8008E77ECCF2091E400A1
:104B80003091E50095E6A9012091EC00822F81701B
:104B900020FF06C08091E80080FF06C080E00895F5
:104BA0002091E80022FD1AC080912F04882389F00B
:104BB000853089F08091EB0085FD0FC02091E400E5
:104BC0003091E50042175307F9F29150E1F684E085
:104BD000089582E0089583E0089581E008950E9499
:104BE0005D260E946526E0EEF0E080818160808392
:104BF000E8EDF0E080818F77808319BCA7EDB0E00D
:104C00008C918E7F8C9380818F7E808310922E0476
:104C100008950F931F93CF93DF930E945D260E9408
:104C20006526C8EDD0E088818F7788838881806889
:104C3000888388818F7D888319BC10922F041092FD
:104C40002B0410922D0410922C0400EE10E0F801B9
:104C500080818B7F808388818160888342E060E0EF
:104C600080E00E946B25E1EEF0E080818E7F808302
:104C7000E2EEF0E0808181608083808188608083C3
:104C8000F80180818E7F8083888180618883DF91B5
:104C9000CF911F910F910895E8EDF0E080818F7E14
:104CA0008083E7EDF0E080818160808384E082BFD3
:104CB00081E080932E040C940926E8EDF0E08081D9
:104CC0008E7F80831092E20008951092DA00109295
:104CD000E10008951F920F920FB60F9211242F93A7
:104CE0003F934F935F936F937F938F939F93AF9374
:104CF000BF93EF93FF938091E10082FF0BC08091FF
:104D0000E20082FF07C08091E1008B7F8093E10089
:104D10000E94D4288091DA0080FF19C08091D800C9
:104D200080FF15C08091DA008E7F8093DA00809139
:104D3000D90080FF96C080E189BD82E189BD09B4B8
:104D400000FEFDCF81E080932F040E94DA22809143
:104D5000E10080FF19C08091E20080FF15C08091C2
:104D6000E2008E7F8093E2008091E2008061809378
:104D7000E2008091D80080628093D80019BC85E061
:104D800080932F040E94EC228091E10084FF2BC0CD
:104D90008091E20084FF27C080E189BD82E189BD66
:104DA00089B5982F917080FFFBCF8091D8008F7DBF
:104DB0008093D8008091E1008F7E8093E100809104
:104DC000E2008F7E8093E2008091E2008160809318
:104DD000E20080912B04882309F449C084E0809389
:104DE0002F040E94ED228091E10083FF29C0809171
:104DF000E20083FF25C08091E100877F8093E1007E
:104E000082E080932F0410922B048091E1008E7F2A
:104E10008093E1008091E2008E7F8093E200809198
:104E2000E20080618093E20042E060E080E00E9466
:104E30006B258091F00088608093F0000E94EB2247
:104E4000FF91EF91BF91AF919F918F917F916F9162
:104E50005F914F913F912F910F900FBE0F901F9038
:104E6000189519BC10922F040E94E82270CF8091EF
:104E7000E30087FD93E090932F04B3CF1F920F922E
:104E80000FB60F9211242F933F934F935F936F931D
:104E90007F938F939F93AF93BF93CF93DF93EF93C2
:104EA000FF93D091E900DF708091EC00C82FC170B2
:104EB00080FDC0E81092E9008091F000877F809328
:104EC000F00078940E9482271092E9008091F0000F
:104ED00088608093F000CD2BCF70C093E900FF91E4
:104EE000EF91DF91CF91BF91AF919F918F917F9182
:104EF0006F915F914F913F912F910F900FBE0F9047
:104F00001F9018951F93CF93DF93CDB7DEB7AA9765
:104F10000FB6F894DEBF0FBECDBF80E394E02091C2
:104F2000F100FC012193CF01F4E088339F07B9F72A
:104F30000E94F4228091E80083FF1EC1809130041A
:104F4000909131049A3008F017C1E92FF0E0E9524E
:104F5000F64D0C943229803899F0823809F00CC152
:104F6000809134048F70873008F006C18093E90087
:104F70008091EB0085FB882780F91092E90006C03C
:104F800080912C0490912D04911182609091E80001
:104F9000977F9093E8008093F1001092F100809148
:104FA000E8008E77E5C0882309F4D3C0823009F089
:104FB000E3C0809132048111D6C0809134048F7097
:104FC0002FEF280F263008F0D7C08093E9002091FA
:104FD000EB0020FFC8C0933031F48091EB00806279
:104FE0008093EB00C0C09091EB0090619093EB0038
:104FF00021E030E001C0220F8A95EAF72093EA0011
:105000001092EA008091EB008860EACF8111B4C071
:10501000109132041F778091E3008078812B809378
:10502000E3008091E800877F8093E8000E949F253D
:105030008091E80080FFFCCF8091E300806880933E
:10504000E30082E0111183E080932F0495C0805823
:10505000823008F091C080913204909133048C3DED
:1050600023E09207A1F583E08A838AE289834FB720
:10507000F894DE01139620E03EE051E2E32FF0E0E9
:1050800050935700E49120FF03C0E295EF703F5F1B
:10509000EF708E2F90E0EA30C0F0C7968D939D930D
:1050A0002F5F243159F74FBF8091E800877F8093AD
:1050B000E8006AE270E0CE0101960E94AE24809181
:1050C000E8008B778093E80057C0C096E7CF6091E7
:1050D000340470913504AE014F5F5F4F0E94EC23A2
:1050E000BC01892B09F448C09091E800977F909308
:1050F000E80089819A810E940C25E1CF8038E1F592
:105100008091E800877F8093E80080912B04809352
:10511000F10045CF811130C090913204923060F59A
:105120008091E800877F8093E80090932B040E9491
:105130009F2580912B04882311F084E005C0809185
:10514000E30087FDFACF81E080932F040E94EF22D5
:1051500013C080913204813079F481E0933009F0FA
:1051600080E080932D041092E9008091E800877F11
:105170008093E8000E949F258091E80083FF0AC089
:105180008091E800877F8093E8008091EB00806247
:105190008093EB00AA960FB6F894DEBF0FBECDBF8A
:1051A000DF91CF911F9108950895CF9380912F049F
:1051B0008823A1F0C091E900CF709091EC00892F75
:1051C000817090FD80E8C82B1092E9008091E80082
:1051D00083FD0E948227CF70C093E900CF9108958C
:1051E000991B79E004C0991F961708F0961B881F39
:1051F0007A95C9F78095089587FB082E062687FDC6
:10520000819567FD61950E94F0280EF4919507FC49
:1052100081950895AA1BBB1B51E107C0AA1FBB1FA4
:10522000A617B70710F0A61BB70B881F991F5A9532
:10523000A9F780959095BC01CD01089597FB072EA5
:1052400016F4009407D077FD09D00E940A2907FCC4
:1052500005D03EF4909581959F4F08957095619586
:105260007F4F0895EE0FFF1F0590F491E02D0994F4
:10527000FB01DC0102C005900D9241505040D8F76F
:105280000895FC014150504030F001900616D1F7CE
:105290003197CF010895882799270895FB01DC01F4
:1052A00004C08D910190801921F441505040C8F7FD
:1052B000881B990B0895F999FECF92BD81BDF89A8C
:1052C000992780B50895A6E1B0E044E050E00C9441
:1052D0009529A8E1B0E042E050E00C949529262FF2
:1052E000F999FECF92BD81BDF89A019700B40216DC
:1052F00039F01FBA20BD0FB6F894FA9AF99A0FBE8A
:1053000008950396272F0E9470290E946F29252F48
:105310000E947029242F0C9470290196272F0E9437
:1053200070290C946F29DC01CB01FC01F999FECFA7
:1053300006C0F2BDE1BDF89A319600B40D9241501D
:105340005040B8F70895F894FFCF320F3A0F410F4D
:10535000460F4B0F500F550F5A0F5F0F640F690F19
:105360006E0F720F770F7A0F7D0F800F830F850FEF
:10537000880F351835188D188D1862186218621844
:105380006218DF186B197A197A19D619621862181F
:10539000DF19331A331A3C1A3C1A3E1A3C1A3C1ACB
:1053A0003C1A331A331A431A3C1A3C1A431AAB27D5
:1053B000D327BC28D327BC2806282728BC287E282A
:0253C0008A2839
:1053C200010206060601191A1B1C1D1E1F2021229E
:1053D2000021007F220003EE01A122A622A422A521
:1053E20022D92201333236000102020202060606E7
:1053F2000909090909090F0F0F0F0F0F15151518C4
:105402001919191919191919191923240008101829
:045412001810080066
:00000001FF
